{
  "_format": "hh-sol-artifact-1",
  "contractName": "IdentityVerification",
  "sourceName": "contracts/IdentityVerification.sol",
  "abi": [
    {
      "inputs": [],
      "stateMutability": "nonpayable",
      "type": "constructor"
    },
    {
      "inputs": [],
      "name": "getUsers",
      "outputs": [
        {
          "internalType": "address[]",
          "name": "",
          "type": "address[]"
        }
      ],
      "stateMutability": "view",
      "type": "function"
    },
    {
      "inputs": [
        {
          "internalType": "address",
          "name": "",
          "type": "address"
        }
      ],
      "name": "identities",
      "outputs": [
        {
          "internalType": "string",
          "name": "name",
          "type": "string"
        },
        {
          "internalType": "bool",
          "name": "verified",
          "type": "bool"
        }
      ],
      "stateMutability": "view",
      "type": "function"
    },
    {
      "inputs": [],
      "name": "owner",
      "outputs": [
        {
          "internalType": "address",
          "name": "",
          "type": "address"
        }
      ],
      "stateMutability": "view",
      "type": "function"
    },
    {
      "inputs": [
        {
          "internalType": "string",
          "name": "_name",
          "type": "string"
        }
      ],
      "name": "register",
      "outputs": [],
      "stateMutability": "nonpayable",
      "type": "function"
    },
    {
      "inputs": [
        {
          "internalType": "uint256",
          "name": "",
          "type": "uint256"
        }
      ],
      "name": "users",
      "outputs": [
        {
          "internalType": "address",
          "name": "",
          "type": "address"
        }
      ],
      "stateMutability": "view",
      "type": "function"
    },
    {
      "inputs": [
        {
          "internalType": "address",
          "name": "user",
          "type": "address"
        }
      ],
      "name": "verify",
      "outputs": [],
      "stateMutability": "nonpayable",
      "type": "function"
    }
  ],
  "bytecode": "0x6080604052348015600f57600080fd5b5033600260006101000a81548173ffffffffffffffffffffffffffffffffffffffff021916908373ffffffffffffffffffffffffffffffffffffffff160217905550610cae806100606000396000f3fe608060405234801561001057600080fd5b50600436106100615760003560e01c8062ce8e3e14610066578063365b98b21461008457806363a9c3d7146100b45780638da5cb5b146100d0578063f2c298be146100ee578063f653b81e1461010a575b600080fd5b61006e61013b565b60405161007b91906105b9565b60405180910390f35b61009e60048036038101906100999190610625565b6101c9565b6040516100ab9190610661565b60405180910390f35b6100ce60048036038101906100c991906106a8565b610208565b005b6100d86102f5565b6040516100e59190610661565b60405180910390f35b6101086004803603810190610103919061081b565b61031b565b005b610124600480360381019061011f91906106a8565b610410565b6040516101329291906108fe565b60405180910390f35b606060018054806020026020016040519081016040528092919081815260200182805480156101bf57602002820191906000526020600020905b8160009054906101000a900473ffffffffffffffffffffffffffffffffffffffff1673ffffffffffffffffffffffffffffffffffffffff1681526020019060010190808311610175575b5050505050905090565b600181815481106101d957600080fd5b906000526020600020016000915054906101000a900473ffffffffffffffffffffffffffffffffffffffff1681565b600260009054906101000a900473ffffffffffffffffffffffffffffffffffffffff1673ffffffffffffffffffffffffffffffffffffffff163373ffffffffffffffffffffffffffffffffffffffff1614610298576040517f08c379a000000000000000000000000000000000000000000000000000000000815260040161028f9061097a565b60405180910390fd5b60016000808373ffffffffffffffffffffffffffffffffffffffff1673ffffffffffffffffffffffffffffffffffffffff16815260200190815260200160002060010160006101000a81548160ff02191690831515021790555050565b600260009054906101000a900473ffffffffffffffffffffffffffffffffffffffff1681565b6040518060400160405280828152602001600015158152506000803373ffffffffffffffffffffffffffffffffffffffff1673ffffffffffffffffffffffffffffffffffffffff16815260200190815260200160002060008201518160000190816103869190610ba6565b5060208201518160010160006101000a81548160ff0219169083151502179055509050506001339080600181540180825580915050600190039060005260206000200160009091909190916101000a81548173ffffffffffffffffffffffffffffffffffffffff021916908373ffffffffffffffffffffffffffffffffffffffff16021790555050565b6000602052806000526040600020600091509050806000018054610433906109c9565b80601f016020809104026020016040519081016040528092919081815260200182805461045f906109c9565b80156104ac5780601f10610481576101008083540402835291602001916104ac565b820191906000526020600020905b81548152906001019060200180831161048f57829003601f168201915b5050505050908060010160009054906101000a900460ff16905082565b600081519050919050565b600082825260208201905092915050565b6000819050602082019050919050565b600073ffffffffffffffffffffffffffffffffffffffff82169050919050565b6000610520826104f5565b9050919050565b61053081610515565b82525050565b60006105428383610527565b60208301905092915050565b6000602082019050919050565b6000610566826104c9565b61057081856104d4565b935061057b836104e5565b8060005b838110156105ac5781516105938882610536565b975061059e8361054e565b92505060018101905061057f565b5085935050505092915050565b600060208201905081810360008301526105d3818461055b565b905092915050565b6000604051905090565b600080fd5b600080fd5b6000819050919050565b610602816105ef565b811461060d57600080fd5b50565b60008135905061061f816105f9565b92915050565b60006020828403121561063b5761063a6105e5565b5b600061064984828501610610565b91505092915050565b61065b81610515565b82525050565b60006020820190506106766000830184610652565b92915050565b61068581610515565b811461069057600080fd5b50565b6000813590506106a28161067c565b92915050565b6000602082840312156106be576106bd6105e5565b5b60006106cc84828501610693565b91505092915050565b600080fd5b600080fd5b6000601f19601f8301169050919050565b7f4e487b7100000000000000000000000000000000000000000000000000000000600052604160045260246000fd5b610728826106df565b810181811067ffffffffffffffff82111715610747576107466106f0565b5b80604052505050565b600061075a6105db565b9050610766828261071f565b919050565b600067ffffffffffffffff821115610786576107856106f0565b5b61078f826106df565b9050602081019050919050565b82818337600083830152505050565b60006107be6107b98461076b565b610750565b9050828152602081018484840111156107da576107d96106da565b5b6107e584828561079c565b509392505050565b600082601f830112610802576108016106d5565b5b81356108128482602086016107ab565b91505092915050565b600060208284031215610831576108306105e5565b5b600082013567ffffffffffffffff81111561084f5761084e6105ea565b5b61085b848285016107ed565b91505092915050565b600081519050919050565b600082825260208201905092915050565b60005b8381101561089e578082015181840152602081019050610883565b60008484015250505050565b60006108b582610864565b6108bf818561086f565b93506108cf818560208601610880565b6108d8816106df565b840191505092915050565b60008115159050919050565b6108f8816108e3565b82525050565b6000604082019050818103600083015261091881856108aa565b905061092760208301846108ef565b9392505050565b7f4f6e6c792061646d696e2063616e207665726966790000000000000000000000600082015250565b600061096460158361086f565b915061096f8261092e565b602082019050919050565b6000602082019050818103600083015261099381610957565b9050919050565b7f4e487b7100000000000000000000000000000000000000000000000000000000600052602260045260246000fd5b600060028204905060018216806109e157607f821691505b6020821081036109f4576109f361099a565b5b50919050565b60008190508160005260206000209050919050565b60006020601f8301049050919050565b600082821b905092915050565b600060088302610a5c7fffffffffffffffffffffffffffffffffffffffffffffffffffffffffffffffff82610a1f565b610a668683610a1f565b95508019841693508086168417925050509392505050565b6000819050919050565b6000610aa3610a9e610a99846105ef565b610a7e565b6105ef565b9050919050565b6000819050919050565b610abd83610a88565b610ad1610ac982610aaa565b848454610a2c565b825550505050565b600090565b610ae6610ad9565b610af1818484610ab4565b505050565b5b81811015610b1557610b0a600082610ade565b600181019050610af7565b5050565b601f821115610b5a57610b2b816109fa565b610b3484610a0f565b81016020851015610b43578190505b610b57610b4f85610a0f565b830182610af6565b50505b505050565b600082821c905092915050565b6000610b7d60001984600802610b5f565b1980831691505092915050565b6000610b968383610b6c565b9150826002028217905092915050565b610baf82610864565b67ffffffffffffffff811115610bc857610bc76106f0565b5b610bd282546109c9565b610bdd828285610b19565b600060209050601f831160018114610c105760008415610bfe578287015190505b610c088582610b8a565b865550610c70565b601f198416610c1e866109fa565b60005b82811015610c4657848901518255600182019150602085019450602081019050610c21565b86831015610c635784890151610c5f601f891682610b6c565b8355505b6001600288020188555050505b50505050505056fea264697066735822122036135bba2ea746237ccd09598b770733895e0728782e44f12986ead2a00017a064736f6c634300081c0033",
  "linkReferences": {},
  "deployedLinkReferences": {}
}